:020000040800F2
:10000000F8080020AD0100088124000849210008FB
:100010007D240008691E0008693000080000000007
:10002000000000000000000000000000052A000899
:100030006D1E000800000000ED280008D92B000804
:10004000C7010008C7010008C7010008C701000870
:10005000C7010008C7010008C7010008C701000860
:10006000C7010008C7010008C7010008C701000850
:10007000C7010008C7010008C7010008C701000840
:10008000C7010008C7010008C7010008C701000830
:10009000C7010008C7010008C7010008C701000820
:1000A000C7010008C7010008C7010008C701000810
:1000B000C70100083D2C0008C7010008C70100085F
:1000C000C7010008C7010008C7010008C7010008F0
:1000D000C7010008D92D0008592E0008C7010008E3
:1000E000C7010008C7010008C701000800F002F8B6
:1000F00000F04DF80AA090E8000C82448344AAF175
:100100000107DA4501D100F042F8AFF2090EBAE872
:100110000F0013F0010F18BFFB1A43F0010318473B
:100120005846000078460000103A24BF78C878C1CD
:10013000FAD8520724BF30C830C144BF04680C60ED
:10014000704700000023002400250026103A28BF35
:1001500078C1FBD8520728BF30C148BF0B60704739
:10016000642900F05980002070471FB500F0AEFDF3
:1001700004000020002103F095F9401C606000207D
:10018000002103F079F9E0601FBD10B510BD00F04B
:10019000DFFF1146FFF7E9FF03F04AF901F03CFAEF
:1001A00003B4FFF7F2FF03BC01F094FA094880475B
:1001B00009480047FEE7FEE7FEE7FEE7FEE7FEE749
:1001C000FEE7FEE7FEE7FEE704480549054A064B61
:1001D00070470000DD2B0008ED000008F802002049
:1001E000F8080020F8040020F80400200FB41CB523
:1001F000084B06AA7B4469460090059800F065FA12
:1002000004460020694600F073FA20461CBC5DF8E5
:1002100014FB0000F90400002DE9F041064600241B
:1002200010687529314616A510D0AFF3008000285C
:1002300002DA404213A507E031688A0701D512A50A
:1002400002E0490704D511A5012401E0AFF30080C5
:1002500000210A2206F1240709E0B0FBF2FCB0FB02
:10026000F2F302FB1C00303078541846491C002879
:10027000F3D123462A463046BDE8F04100F0C7B925
:10028000000000002D0000002B00000020000000F6
:100290002DE9F05F894604464FF0000ADFF874B19B
:1002A000FB44C0F820A02046E1688847002874D0AD
:1002B000252806D0D4E901219047206A401C2062FD
:1002C000F1E700265F462046E1688847202805467A
:1002D00007DB312D05D2781910F8200C08B1064340
:1002E000F1E7B00701D526F00406C4F81CA00027EA
:1002F000C4F818A02A2D09D0284602F0A8FF38B368
:1003000004EB8708303DC8F8185019E059F8041B71
:10031000204604EB87029161E1688847012F05467A
:1003200018D1E069002820DA26F020061DE0D8F870
:10033000180000EB800005EB40003038C8F81800CA
:100340002046E1688847054602F081FF0028EED18B
:10035000012F0AD02E2D08D12046E16888477F1C46
:100360000546022F46F02006C4DBA069002803DA08
:10037000404246F00106A061F00701D026F01006C9
:100380006C2D0BD0682D09D04C2D39D06A2D35D06D
:10039000742D35D07A2D33D016E038E0E1682F4641
:1003A00020468847B842054609D16C2F26D04FF425
:1003B0008060E168064320468847054604E06C2FCC
:1003C0001AD04FF4807006430DB3A5F141001928EF
:1003D00002D8203546F400664A4629462046266063
:1003E0004E46FFF7BDFE80B101280BD0F61D26F06A
:1003F000070000F1080956E74020E4E78020D8E72D
:100400000020D6E706F104094DE7284652E7206AA6
:10041000BDE8F09F2C4400000FB400B58DB010A9CA
:10042000099000910B904FF0FF300A9000200C9043
:10043000064878440690064878446A4607900F9923
:1004400009A800F0EBFB0DB05DF814FB07080000F5
:100450001F0800002DE9FF5F1D464FF0FF3B91464E
:100460004FF000085F46D5E90146A96901987F1C55
:100470008847296A824688470028F6D1BAF1FF3FAB
:100480000CD0002E24F4C06419DD600614D5BAF136
:100490002B0F09D0BAF12D0F0ED103E0584604B04E
:1004A000BDE8F09F44F48064A96901987F1C8847E7
:1004B000761E8246002E02DDBAF1300F03D0B9F16C
:1004C000000F26D032E0A969761E01987F1C44F403
:1004D00000748847002E824605DDBAF1780F06D0F9
:1004E000BAF1580F03D0B9F1000F10D01EE0B9F1E6
:1004F000000F02D0B9F1100F18D1A969761E01982A
:100500007F1C24F4007488478246102002E00820F3
:1005100000E00A20814609E0A96908FB0908761E67
:1005200001987F1C44F4007488478246002E05DD44
:100530004946504600F0E1F80028EDDAE9690198F3
:100540008847A00502D46FF00100A8E7E00725D195
:10055000600613D5600502D5C8F1000000E04046F2
:1005600029680A1D2A600968220501D5087015E06E
:10057000220701D5088011E008600FE02868011DFE
:1005800029600068210502D580F8008006E0210777
:1005900002D5A0F8008001E0C0F8008038467EE770
:1005A00030B505460B462A4613F8014B12F8010BED
:1005B00008B1A042F8D01CB1002802D06D1CF1E7B0
:1005C000284630BD4FF000020429C0F0128010F020
:1005D000030C00F05583CCF1040CBCF1020F18BFE2
:1005E00000F8012BA8BF20F8022BA1EB0C0100F0B2
:1005F00047BB5FEAC17C24BF00F8012B00F8012B48
:1006000048BF00F8012B70477047704770472DE9CD
:10061000F0470D4699469246044600F124080168C9
:10062000880604D5E06921F01001216000E0012076
:10063000A84201DD471B00E00027A1697A1902EBFF
:100640000900081AA0612078C00602D42046AFF342
:100650000080002608E0D4E901211AF8060090473E
:10066000206A401C761C20624E45F4DB2078C006D0
:100670000AD52046AFF3008006E0D4E901213020FE
:100680009047206A401C2062381EA7F10107F4DC65
:1006900007E0D4E9012118F805009047206A401CC2
:1006A0002062281EA5F10105F3DC2046AFF300808F
:1006B0002078000602D50220BDE8F0870120FBE784
:1006C00001694A1C02610878704700B58FB0CDE916
:1006D00001310021059105497944CDE90310114606
:1006E0006846FFF7D5FD0FB000BD0000E5FFFFFF36
:1006F0000A6802F8010B0A6070473A2800D23038C5
:1007000020F02002412A01D3A2F13700884201D310
:100710004FF0FF30704700002DE9FF4F06468BB0C9
:100720000878FF2806D0491C2D2805D000244FF05A
:10073000000908E000200CE00124F8E709EB890338
:10074000491C00EB43090878FF28F7D114B1C9F11F
:1007500000008146107800252C46AA4629462D28FF
:1007600001D02B2804D1521C2D2813D00020824602
:100770008B461078FF280FD04FF0000C0A21521C36
:10078000A5FB017804FB018105FB0C11C5194BEB9E
:100790000104EEE70120EAE7002108464FF00000DF
:1007A000BAF1000F02D000EB80004008C0F381577F
:1007B000012F01DD4FF0FF370E9955EA040009EBD8
:1007C00001080BD04FF0020918F5FA7F16DA4FEA4C
:1007D000CA70002F706008DD012007E04FEACA7080
:1007E000C6E900B00FB0BDE8F08F0020306000F027
:1007F00071FAC0F800901821084616E0B8F5FA7FA3
:1008000018DD002F02DAF748784401E0F648784412
:10081000D0E90010C6E9001040EACA70706000F02C
:1008200059FAC0F80090142108460FB0BDE8F04F07
:1008300003F071B9002108464FF00000B8F1000143
:10084000099002DAC7F1000200E03A4601DAC8F185
:10085000000106A800F006FC06AB93E8070003AB16
:1008600083E8070044F23E005BEA0401009058462A
:1008700004D144F21E012C465D460091210C09046E
:10088000014306D10099240444EA15442D0410398B
:10089000009104F07F41014306D10099240244EA0B
:1008A00015642D020839009104F07041014306D10E
:1008B0000099240144EA15742D01091F009104F0E8
:1008C0004041014306D10099A40044EA9574AD006B
:1008D000891E009104F00041084304D100986D196D
:1008E0006441401E00904FF001033A466846B8F15B
:1008F000000FCDE9014503A902DD01F07EF901E019
:1009000001F051F9BAF1000F04460D4601D084F010
:100910000044002108464FF00000099940F2FF779B
:10092000484010F00C0F07D124F00040284303D0BA
:10093000C4F30A50B84212D100F0CCF9C0F80090CC
:10094000C4F30A50B8420AD1A8487844D0E900104C
:10095000C6E9001004F000410843706042E7C6E9B0
:1009600000543FE72DE9FF4F1F464FF0000A4FF0BC
:10097000FF38454691B0D7E90146CDF83CA000F0DC
:10098000A5F9C0680168405C1090B96912986D1CA7
:100990008847396A814688470028F6D1B9F1FF3F78
:1009A0000AD0002E24F4D06411DDB9F12B0F08D049
:1009B000B9F12D0F0BD102E0404615B013E744F416
:1009C0008064B96912986D1C8847761E814660055F
:1009D00004A901D52D2000E02B20002E01F1010BF0
:1009E0000DF130088DF810003FDDB9F1690F08D026
:1009F000B9F1490F05D0B9F16E0F02D0B9F14E0F20
:100A00001CD13B4601A8009580E85002DDE9121296
:100A10006FF0020003F0E6F8C11CCED10EE0B96918
:100A200012986D1C884781461398761E44F4007412
:100A300005600F98401C002E0F9016DDB9F1300FA5
:100A4000EDD0B9F1780F02D0B9F1580F0DD10F9850
:100A500001280AD13B46CDE90054DDE91212001FFE
:100A6000029603F0BDF8C11CA7D1109989453ED16B
:100A700044F0800406E01399681CAAF1010A44F4CA
:100A800000740860B9696D1C1298761E884730287A
:100A90008146F0D02BE01099894505D1200603D47A
:100AA000761E44F0800418E0484602F0D0FB08B3FC
:100AB000761E0DF123018B4544F4007408D2A9F190
:100AC00030000BF8010B200607D5AAF1010003E066
:100AD000200602D40AF101008246A00502D513992E
:100AE000681C0860B96912986D1C88478146002E01
:100AF000D1DC53E0002E51DDB9F1650F02D0B9F120
:100B0000450F4BD1A00549D5B9696D1C1298761EC9
:100B100024F440748847002E81460CDD2B2804D035
:100B2000B9F12D0F07D144F48074B96912986D1C86
:100B30008847761E8146E00501D52D2100E02B2156
:100B400008F8011BCDF8008021E0761E0DF1390177
:100B5000884544F400740CD2A9F1300010F0FF0075
:100B600088F8000002D10099884509D908F10108E8
:100B700006E0E00501D51E4801E042F20F70824612
:100B8000B96912986D1C8847814613980560002E3C
:100B900004DD484602F05BFB0028D6D1F9691298C3
:100BA0008847FF2053468BF8000088F8000000209B
:100BB0000A900B9004AA0CA90AA8FFF7ADFDA005A6
:100BC00002D46FF00100F8E614F0240F12D0E00711
:100BD0001CD13868DDE90A12031D3B600068C0E9DA
:100BE000001213E0943F0000863F00004A3E0000E0
:100BF000F1D8FFFF0AA9684602F0B8FAE00705D16C
:100C00003868009A011D3960006802602846D4E601
:100C1000026811441378016018467047D160054995
:100C200079445161044979441162002111611146EE
:100C300000F05EB8EDFFFFFFB3000000426842B174
:100C4000016811F8013B23B1521EC0E90012184699
:100C500070470121C160881E704742685AB1C3685D
:100C6000016843B983688B4205D0491E521CC0E914
:100C70000012002070474FF0FF3070474FF0000225
:100C800000B5134694469646203922BFA0E80C5082
:100C9000A0E80C50B1F12001BFF4F7AF090728BF5D
:100CA000A0E80C5048BF0CC05DF804EB890028BFD9
:100CB00040F8042B08BF704748BF20F8022B11F002
:100CC000804F18BF00F8012B7047000000487047A4
:100CD000B8020020004870479802002010B5044672
:100CE00000F05CFA0068005D00F0010010BD00003B
:100CF0002DE9F34F4FF0000A0C4656468DB0012007
:100D00000C9001F10C000B9062690B980121904747
:100D1000051E2DD0252D2CD0216A8847C0B16269CF
:100D20000B9801219047216A88470028F7D1626912
:100D3000411E0B98904700E0761CA1690D988847EA
:100D4000216A88470028F7D1E1690D988847DBE7D9
:100D5000A1690D988847A842074601D1761CD3E7C0
:100D6000E1690D9888477F1C02D1BAF1000F6FD05E
:100D70006BE162690B9800273D46394690472A2867
:100D800004D162690B98012190470125DFF8D082D8
:100D900062690B9801219047A0F130010A290AD21B
:100DA0004745E5DC07EB870100EB4107303FDFD427
:100DB00045F01005ECE7E90601D46FF000476C2818
:100DC0000AD04C2814D0682815D06A280DD0742871
:100DD0001CD07A281AD01DE062690B980121904737
:100DE0006C2802D045F0040514E045F002050DE042
:100DF00045F020050AE062690B98012190476828B8
:100E000002D045F0080505E045F4006562690B98DD
:100E100001219047C4E9015765283DD019DC5828C5
:100E20007AD00CDC452837D004DC252826D0412890
:100E30009ED131E046282FD0472899D12CE05B285D
:100E400077D0612828D063287CD0642823D15AE049
:100E5000F6E06F2848D008DC66281DD067281BD034
:100E6000692821D06E2816D127E0702845D0732834
:100E700068D0752847D078280DD14DE0A1690D982C
:100E80008847252805463FF469AFE1690D988847F2
:100E90006D1C3FF46AAFD8E00D9923466A466FF0A7
:100EA000010002F09BFEC5E045F0400023464FF0F4
:100EB00000026060A80736D43EE0E8077FF447AF41
:100EC0002068011D21600068290501D506701BE717
:100ED000290701D5068017E7A90703D5F117C0E94F
:100EE000006111E706600FE745F0400023464FF030
:100EF00008026060A80716D41EE040F60E0125EA3D
:100F00000100606016E045F0400023464FF00A0201
:100F10006060A80707D40FE045F040006060A807B4
:100F200008D5234610220D996FF00100AFF3008021
:100F300080E007E0102223460D996FF00100FFF7D3
:100F400089FA77E04FF0000963284F46C8464B46C0
:100F5000CB4602D05B2806D038E0E80601D4012059
:100F6000A060012732E06269D4F80CB00B9801212F
:100F700090475E2807D14FF0010949466269D4F8CD
:100F80000CB00B989047216939B900210A4603AB90
:100F900043F82120491C0829FADBD8B3216949B359
:100FA00008F1010862690B98012190475D28F4D18E
:100FB000B9F1000F09D0002003A951F82020D24335
:100FC00041F82020401C0828F7DB03AB20690028EB
:100FD00020794FEA40701ED05B462246CDF8008053
:100FE000CDE901970D9900286FF0010020DAAFF3E9
:100FF00000801FE0C11703AA00EBD1614B1121F063
:101000001F0102EB8302411A136801208840034349
:101010001360C7E719E00D99224600286FF0010020
:10102000009702DAAFF3008004E0AFF3008001E044
:10103000AFF3008000280ADA401C06D10C9820B1DA
:101040004FF0FF300FB0BDE8F08F5046FAE7E907E8
:1010500001D10AF1010A064400200C9054E6000078
:10106000CCCCCC0C2DE9F047814616468AB03548E9
:1010700078440DC88DE80D0032487844801C03ACDC
:101080000DC884E80D0041F69B300844372190FBE1
:10109000F1F290FBF1F5A5F1800501FB12041B3C78
:1010A00002D56442012000E00020DFF898A08046CD
:1010B0000027FA44AAF1BE0A0EE0E0070AD0324641
:1010C000684607EB470101230AEB810100F080FD30
:1010D0008DE8070064107F1C002CEED1194F7F446F
:1010E000AE3F19E0E80715D007EB04100DF1180A20
:1010F00090E80E008AE80E00C068F04201D198190D
:1011000008903246012306A903A800F061FD03AB55
:1011100083E807006D10641C002DE3D14FF001033C
:1011200032466946B8F1000F03A802D000F026FD50
:1011300001E000F04DFDC9E90001C9F808200AB03E
:10114000BDE8F087EC3600000048704798020020A8
:101150007546FFF7F9FFAE4605006946534620F095
:101160000700854618B020B5FFF72EF8BDE82040EF
:101170004FF000064FF000074FF000084FF0000B53
:1011800021F00701AC46ACE8C009ACE8C009ACE806
:10119000C009ACE8C0098D467047000010B5FFF7E4
:1011A00095FD001D10BD00BFFD22000010B5FFF72A
:1011B00091FD006810BD10B50446FFF78BFD04607B
:1011C00010BD00002DE9FF4F1F464FF03C0987B0CE
:1011D0004FF00042DDE9141001F10108DDF858A0DC
:1011E00002EA4050039000200590834605460446DD
:1011F0000490B969461E08988847AAF1010A02902E
:10120000BAF1000F3BDD02982E2815D01021FFF710
:1012100074FA00282EDB4FF0010B0599014317D01B
:10122000B9F1000F0BDB4A46C11700F03FFA054346
:101230000C43A9F1040905E0012004900BE008B17A
:1012400045F0010501200590049820B9361D02E003
:10125000049800B1361FB969089808F10108884759
:10126000BBF1000FAAF1010A0290C9D00999C1F897
:101270000080C5E70298702808D0502806D0F96988
:1012800008988847BBF1000F14D04FE0002002906F
:101290000120BBF1000F049009D0B969089808F14A
:1012A00001088847AAF10109B9F1000F07DCF969C3
:1012B000089888476FF001000BB0BDE8F08F2B282D
:1012C00004D02D280CD14FF0FF300490B969089854
:1012D00008F101088847A9F10109B9F1000FE6DD1D
:1012E000411CE4D00A21FFF708FA0028DFDB02994D
:1012F00008F1010801EB810100EB41000290B9699E
:10130000089888470A21FFF7F8F9099AA9F1010915
:10131000B9F1000FC2F8008001DD0028E7DAF969B1
:10132000089888470499029800FB016655EA040072
:1013300004D004F04041090002D006E0039898E090
:10134000A40044EA9574AD00B61E04F00041080004
:1013500002D16D196441761E159810F0240F03D048
:101360004FF00B095C4803E04FF028096FF07D0057
:101370008246564507DAAAEB06018944B9F1410FC6
:1013800001DD4FF0410901200021A9F1010200F027
:101390008DF9024628400B462140084301D0012127
:1013A00000E00021501E029143F1FF31284021400E
:1013B000084301D0012000E000200299834651EA51
:1013C0000B014FD0002108464FF00000039900F4B4
:1013D000400039B100EB80004FF4400100EBD070C9
:1013E00001EA60008015012802DD4FF0FF3000E0C7
:1013F00013D0401C36D0029860B3BBF1000F0CD163
:101400004A460120002100F051F9284021400843BC
:1014100001D0012000E00020E0B101204A46002177
:1014200000F044F9034640190A4661412D1A8C41E7
:1014300011D3B9F1400F09DD159810F0240F02D037
:10144000AAF1340603E0AAF1170600E0761C002595
:101450004FF0004406E05B1E42F1FF3220EA030534
:1014600021EA0204CAF10100B04206DA1B490398DE
:1014700008430190002000900EE0039AC4F3D321AA
:10148000E80A0A43164940EA44500A433146CDE986
:101490000002684601F0D0FE159810F0240F0BD022
:1014A0001598C00715D13868DDE90012031D3B60AF
:1014B0000068C0E900120CE002A8694601F056FE7F
:1014C0001598C00705D13868029A011D3960006877
:1014D00002604046F0E6000002FCFFFF0000F07FE3
:1014E0000000F03F2DE9FF4F92461D4685B04FF0BA
:1014F0000041DDE9124BDDE914727F1E01EA4B5019
:10150000414940F0FF4940EA0108002122F0200053
:101510004928049102D04E2828D04CE03BA0012657
:1015200007C88DE80700A9690698641C88477F1ED4
:10153000014606D41DF8060018B121F020018142B1
:101540000BD0E96906988847032E34D0082E32D094
:101550006FF0010009B0BDE8F08F761C032E01D0BA
:10156000082EE0D1601CCAF80000DCE7A9690698E3
:10157000641C88477F1E2AD420F02000412826D1F1
:10158000A9690698641C88477F1E20D420F020009B
:101590004E281CD1A9690698641C88477F1E48F410
:1015A000002849F48009CAF8004001D4282806D050
:1015B000E969069888475FEACB7012D022E0A969F2
:1015C0000698641C88477F1E01D4002803DAE96965
:1015D00006988847BCE72928F1D1641CCAF8004066
:1015E000E9E71BF0240F07D028680499031D2B603E
:1015F0000068C0E9001805E02868021D2A6000683C
:10160000C0F800902046A5E70000F07F494E46490B
:101610004E4954590000000010B50446AFF3008055
:101620002046BDE81040FEF7BBBD00004FF0013C76
:1016300050F8042B51F8043B9A4221D1A2EB0C0341
:10164000934313EACC1317D150F8042B51F8043B01
:101650009A4215D1A2EB0C03934313EACC130BD19E
:1016600050F8042B51F8043B9A4209D1A2EB0C0329
:10167000934313EACC13DBD04FF00000704700BF58
:10168000D01A01BAB1FA81F101F0180122FA01F081
:10169000CB40C1F12001DBB2C0B2C01A2CFA01F379
:1016A000D11A914311EAC311E6D17047B2F1200378
:1016B0000AD5C2F1200301FA02F120FA03F300FA7D
:1016C00002F041EA0301704700FA03F14FF0000015
:1016D0007047000001491820ABBEFEE7260002005B
:1016E000704720F07F4C80EA030023F07F47ACEB8B
:1016F000070303F57C5300F0004003F1FF032DE9DD
:1017000080494FEA154B09B44FEA144325EA0B4EC2
:1017100024EA03480FF2042606EB132749083E7813
:101720005FEA320203FB0667C7F5000707FB06F610
:101730004FEA54374FEAD64606F1020607FB066C1D
:10174000CCF1005C4FEA1C472CEA074C07FB06F47F
:101750000CFB06F504EB15464FEA961634BF002045
:101760004FF000404FEAD13706FB07FC4FEA1C4C14
:101770000CFB0BF7D21B03FB0CF761EB07010CFB17
:101780000EF7B0EB074072EB17420CFB08F734BFC3
:10179000A2EB0742B2EB074261EB17414FEA0C4460
:1017A0004FEA910706FB07FC4FEA1C4C0CFB0BF7BA
:1017B000B0EBC74072EB573203FB0CF734BFA2EB20
:1017C000C742B2EBC74261EB57310CFB0EF7B0EBEF
:1017D000C70072EB57720CFB08F734BFA2EBC702CD
:1017E000B2EBC70261EB5771039F4FEA816141EA97
:1017F000921104EBCC044FEAD1374FEA826206FB28
:1018000007FC42EA90124FEA80604FEA1C4C0CFB46
:101810000BF7D21B03FB0CF761EB07010CFB0EF778
:10182000B0EB074072EB17420CFB08F734BFA2EB9A
:101830000742B2EB074261EB17414FEA8C554FEA82
:10184000910704EB9C2406FB07FC4FEA1C4C0CFBA5
:101850000BF7B0EBC74072EB573203FB0CF734BF0A
:10186000A2EBC742B2EBC74261EB57310CFB0EF75C
:10187000B0EBC70072EB57720CFB08F734BFA2EB5A
:10188000C702B2EBC70261EB577115EB4C254FEA6B
:10189000816141EA92114FEA82624FEAD13742EA0E
:1018A000901206FB07FC44F100044FEA80604FEA07
:1018B0001C4C0CFB0BF7D21B03FB0CF761EB070175
:1018C0000CFB0EF7B0EB074072EB17420CFB08F76E
:1018D00034BFA2EB0742B2EB074261EB174115EBB5
:1018E0001C154FEA813141EA92414FEA823242EAC5
:1018F00090424FEA80304FEA0C7644F1000448EA07
:1019000003434EEA0B484FF0000EB2EB080C71EBAC
:10191000030724BF624639464EEB0E0E4FF0000B14
:101920000018524149414BEB0B0BB2EB080C71EB29
:1019300003077BF1000B24BF624639464EEB0E0EC7
:101940004FF0000B0018524149414BEB0B0BB2EB2F
:10195000080C71EB03077BF1000B24BF624639468C
:101960004EEB0E0E51EA020718BF46F0010616EBC9
:101970000E7655F1000254F1000103D5BDE889014E
:10198000BDE80088BDE88901BDE80048B6195241AC
:1019900041EB0101A3F10103704780807F7E7D7CD4
:1019A0007B7A7978777676757473727171706F6EF1
:1019B0006E6D6C6C6B6A6A6968686766666564649C
:1019C000636362616160605F5F5E5E5D5D5C5C5B26
:1019D0005B5A5A5959585857575656555555545495
:1019E000535352525251515050504F4F4F4E4E4DF3
:1019F0004D4D4C4C4C4B4B4B4A4A4A49494948483F
:101A0000484747474746464645454544444444437E
:101A100043434342424242414141000046EA0646B6
:101A2000A3F570534FEA164646EA42564FEAD222D1
:101A300042EA415210B54FEAD121A3F1010300F06F
:101A40002FF820F0004000F1020C00F0004701EBFD
:101A500000501146BCF5006F40EA070000D210BDEF
:101A6000BAF1000F0AD01CB503B44FF004004FF0D8
:101A700004014FF000000FBCBDE810404FF0000122
:101A8000BBF1010FB9BF04484FF0FF3103480021FB
:101A900040EA070010BD00BFFFFFEF7F0000F07FAE
:101AA000002B9C4630D477002BD01CB54FEA37076B
:101AB00003B44FF010004FF01001BAF1000F06D040
:101AC000BCF1000FDCBF40F0080040F008014FF00F
:101AD00000000FBCBDE810400BF1010BBBF1010F82
:101AE00008BF5FEA170722BF12F1010211F10101DD
:101AF0004FF0004143F1000300F0004043EA0000D2
:101B00007047F9D35708D0E746EA064613F1400F6D
:101B10004FEA16461FDD13F1200FDFBF16430A46BA
:101B2000002120335B42BED0C3F1200746EA0646BF
:101B300002FA07F74FEA164646EA0706C3F12007FE
:101B400022FA03F201FA07F721FA03F14FF000033A
:101B500042EA0702A7E746EA020646EA06464FEAD5
:101B6000164646EA0106BCBF46EA0646360C4FF06A
:101B700000034FF000024FF0000194E72DE9804C84
:101B80009A46934670B491E8380007C831EA400C91
:101B900048BF34EA430C03D5FFF7A3FDFFF780FFEE
:101BA000F0BCBDE8008C2DE9804C9A46934670B499
:101BB00091E8380007C831EA400C48BF34EA430CCA
:101BC00003D5FFF78EFDFFF729FFF0BCBDE8008CC1
:101BD0002DE9804C9A46934670B491E8380007C8C6
:101BE00010F0804F08BF13F0804F03D100F01AF8B7
:101BF000FFF756FFF0BCBDE8008C2DE9804C9A46FB
:101C0000934670B491E8380007C810F0804F08BFC1
:101C100013F0804F03D100F005F8FFF7FFFEF0BC92
:101C2000BDE8008C20F07F4780EA030023F07F4C62
:101C300007EB0C03A3F57C5300F00040A3F1FE0377
:101C400092F0000F00F0B38095F0000F00F0778065
:101C50002DE901494FEA11404FEA144621EA0048B4
:101C600000FB06FC24EA064708FB06F607FB08F81B
:101C700000FB07F718EB06484CEB164C4FEA124BEB
:101C800018EB07484FEA15464CEB174022EA0B4E7B
:101C90000BFB06FC25EA06470EFB06F607FB0EFECD
:101CA0000BFB07F71EEB064E4CEB164C4FF00006F5
:101CB0001EEB074E4CEB174B18EB0B0840F10000E6
:101CC00018EB0E0B58EB000840F100008F1A4FF094
:101CD00000013CBFC943661B14BFB5EB040C0021D7
:101CE0003CBFC943F61B4FEA17444EEA8E0E27EA63
:101CF00004454FEA1C4704FB07622CEA074C05FB2E
:101D000007F70CFB05F604FB0CFC16EB074642EB51
:101D1000174216EB0C4642EB1C421BEB060658EB37
:101D20000202414146EA9E0601D5BDE80189B61985
:101D3000524141EB0101A3F10103BDE801894FEAE2
:101D400014454FEA114724EA054621EA074C05FBF2
:101D500007F406FB07F70CFB06F105FB0CFC11EB87
:101D6000074144EB17444FEA124711EB0C4144EB97
:101D70001C4422EA074C05FB07F206FB07F70CFBA5
:101D800006F605FB0CFC16EB074642EB174216EB7A
:101D90000C4642EB1C456A1854F1000148BF7047DD
:101DA000B619524141EB0101A3F10103704795F0CF
:101DB000000F37D04FEA11424FEA144721EA02469A
:101DC00024EA074C02FB07F106FB07F70CFB06F4BD
:101DD00002FB0CFC14EB074441EB17414FEA15479B
:101DE00014EB0C4441EB1C4125EA074C02FB07F5C0
:101DF00006FB07F70CFB06F602FB0CFC16EB07468E
:101E000045EB174516EB0C4645EB1C42121951F1F8
:101E1000000148BF7047B619524141EB0101A3F1DF
:101E2000010370474FEA14454FEA114724EA05467B
:101E300021EA074C05FB07F106FB07F70CFB06F24E
:101E40004FF0000605FB0CFC12EB074241EB17417B
:101E500012EB0C4251EB1C4148BF7047921841EB0A
:101E60000101A3F10103704700BFFEE770470000C6
:101E700010B56FF0040000F09BFE0A4800680A49A4
:101E8000B0FBF1F0094908700846007800EB40010A
:101E9000C1EBC0104FF6FF7101EAC0000449088091
:101EA00010BD00004C00002000127A0060000020ED
:101EB000620000200146114A12884A434FF0E02395
:101EC0005A6100229A611A46126942F001021A61AF
:101ED00000BF4FF0E022106900F001021AB100F4D7
:101EE0008032002AF5D04FF0E022126922F0010280
:101EF0004FF0E0231A6100229A61704762000020CF
:101F000010B521A20021012000F0E2FB2048036867
:101F1000204821A102682348FEF768F9214A0621DA
:101F2000012000F05FFC20A20021022000F05AFCFA
:101F30001F4820A102681B48FEF758F9194A0621DC
:101F4000022000F04FFC1DA20021032000F0C0FB86
:101F50001C481DA102681348FEF748F9114A0621E2
:101F6000032000F03FFC1AA20021042000F03AFCFC
:101F700019481AA102680B48FEF738F9094A0621E8
:101F8000042000F02FFC10BDCEC2B6C83A000000FD
:101F90001C0000201800002025642E25644320200A
:101FA000000000007802002048756D3A0000000033
:101FB000200000202564252520200000B9E2D5D589
:101FC0003A0000002400002025646C757820200071
:101FD000434F323A00000000280000202564707052
:101FE0006D2020002DE9F04102460025002600204A
:101FF00000230024002791F803C00CF00F0591F88E
:1020000003C00CF0100CBCF1000F03D091F802C01B
:102010004CEA050591F800C0BCF1000F31D01468FE
:1020200000202BE04FF0010C0CFA00F3B1F800C0D7
:102030000CEA03069E4220D183004FF00F0C0CFAED
:1020400003F7BC4305FA03FC4CEA040491F803C00F
:10205000BCF1280F06D14FF0010C0CFA00FCC2F8BD
:1020600014C00AE091F803C0BCF1480F05D14FF04D
:10207000010C0CFA00FCC2F810C0401C0828D1D397
:102080001460B1F800C0BCF1FF0F34DD54680020CB
:102090002EE000F1080C4FF0010808FA0CF3B1F83B
:1020A00000C00CEA03069E4221D183004FF00F0CC2
:1020B0000CFA03F7BC4305FA03FC4CEA040491F85C
:1020C00003C0BCF1280F05D100F1080C08FA0CF888
:1020D000C2F8148091F803C0BCF1480F07D100F199
:1020E000080C4FF0010808FA0CF8C2F81080401CE8
:1020F0000828CED35460BDE8F081024600209368E2
:102100000B400BB1012000E0002070474161704797
:102110000161704708B50121042000F0F9FB10208F
:102120008DF8030003208DF802003F20ADF8000079
:1021300069460448FFF756FFBDF800100148FFF755
:10214000E5FF08BD0008014000BFFEE7FEB500F056
:1021500069FE00287ED188A18848FEF721FA38B3AD
:1021600087488849884A894BCDE900210290884AEE
:1021700088A18248FEF750F9052818D184480068E4
:1021800001F04AFB884908600846006801F060FBDE
:1021900006467F480168304601F03EFC054683490B
:1021A00001F06EFB044601F037FB81490860D4E082
:1021B00080A17248FEF7F4F950B1012000F0C8FC8C
:1021C00001207E49086006227DA17F4800F0A6FF1D
:1021D0007EA16A48FEF7E4F950B1002000F0B8FC97
:1021E00000207649086006227AA1774800F096FF21
:1021F0007AA16248FEF7D4F950B1012000F0B8FC92
:10220000012077490860052276A16F4800F086FF1B
:1022100076A15A48FEF7C4F950B1002000F0A8FC9E
:1022200000206F490860052271A1674800F076FF21
:1022300071A15248FEF7B4F938B101206F49086026
:1022400005226FA1604800F069FF6FA14B48FEF7BF
:10225000A7F900E088E038B100206849086005224D
:102260006AA1594800F05AFF6AA14448FEF798F95C
:1022700050B1012000F08CFC012068490860062262
:1022800067A1514800F04AFF67A13C48FEF788F972
:1022900050B1002000F07CFC00206049086006225C
:1022A00063A1494800F03AFF63A13448FEF778F98A
:1022B00050B1012000F03CFC01206049086005227B
:1022C0005FA1414800F02AFF5FA12C48FEF768F9A2
:1022D00050B1002000F02CFC002058490860052275
:1022E0005AA1394800F01AFF5AA12448FEF758F9BC
:1022F00068B1002000F0FCFB002000F009FC002089
:1023000055490860052255A12F4800F007FF55A147
:102310001A48FEF745F968B1012000F0E9FB0020FA
:1023200000F0F6FB01204C49086005224EA126482A
:1023300000F0F4FE4EA11148FEF732F968B100201A
:1023400000F0D6FB012000F0E3FB022042490860C8
:10235000052248A11C4800F0E1FE4FF480710748B7
:10236000FEF730F900F02AFD24480068012801D169
:1023700000F0A0FFFEBD00004441000078000020F6
:102380002C00002028000020240000202000002035
:102390001400002044413A5425664825644C2564C5
:1023A00043256453256400001800002000002041EC
:1023B0001C000020393130310000000038000020BE
:1023C000393130310D0A00000038014039313030E8
:1023D00000000000393130300D0A00003230310089
:1023E0003C0000203230310D0A0000003230300055
:1023F0003230300D0A00000033303100440000203C
:102400003330310D0A000000333030003330300DEE
:102410000A00000039343031000000004000002084
:10242000393430310D0A00003934303000000000FA
:10243000393430300D0A00003530310034000020CE
:102440003530310D0A000000353030003530300DA8
:102450000A00000036303000300000203630300DE9
:102460000A000000363031003630310D0A0000001D
:10247000363032003630320D0A00000000BFFEE771
:102480007047000070B5002100230F22C47804B308
:10249000154C246804F4E064C4F5E064210AC1F139
:1024A0000403CA40447804FA03F1847814402143B9
:1024B00009010E4C0678A155047804F01F0501248B
:1024C000AC4005786D11AD0005F1E025C5F800417F
:1024D00009E0047804F01F050124AC40044D06789F
:1024E000761145F8264070BD0CED00E000E400E0F8
:1024F00080E100E002490143024A11607047000098
:102500000000FA050CED00E070B5002415E004F1C0
:10251000B001C8B200F0CAF9012000F0C7F91020DC
:1025200000F0C4F9002504E0002000F0CFF9681C99
:10253000C5B2802DF8DB601CC4B2082CE7DB70BD8F
:1025400000BF011EA0F10100FBD1704700B50120C2
:102550000B4908601420FFF7F3FF01200949C1F877
:1025600098011420FFF7ECFF00200549091D0860C1
:102570001420FFF7E5FF00200249C1F8940100BDD7
:10258000948121420080214200B500200749086063
:102590001420FFF7D5FF01200549C1F8940114204C
:1025A000FFF7CEFF01200149086000BD988121425C
:1025B0000080214208B50121082000F0A9F901217D
:1025C000082000F0A5F92020ADF8000010208DF8BB
:1025D000030003208DF8020069463248FFF702FD30
:1025E0004020ADF8000010208DF8030003208DF886
:1025F000020069462B48FFF7F5FCAE2000F056F9C3
:10260000202000F053F9102000F050F9B02000F025
:102610004DF9C82000F04AF9022000F047F91020D7
:1026200000F044F9402000F041F9812000F03EF92B
:102630007F2000F03BF9A12000F038F9A62000F03F
:1026400035F9A82000F032F93F2000F02FF9A4203E
:1026500000F02CF9D32000F029F9002000F026F931
:10266000D52000F023F9F02000F020F9D92000F067
:102670001DF9222000F01AF9DA2000F017F91220D3
:1026800000F014F9DB2000F011F9202000F00EF921
:102690008D2000F00BF9142000F008F9AF2000F0B5
:1026A00005F908BD000C014070B505460C4605F162
:1026B000B001C8B200F0FAF8102141EA141000F09D
:1026C000F5F804F00F0141F0010000F0EFF870BDE3
:1026D0002DE9F041074688461646781E4006070E4B
:1026E0004FEA08704FEA106846E000253CE005EB31
:1026F0000510244911F810003178884232D105EBD9
:102700000510204901EB400040787178884229D1BA
:1027100041463846FFF7C8FF00240AE005EB0511E3
:10272000184A02EB4101891C085D00F0CFF8601CDB
:10273000C4B2102CF2DB791CC8B24146FFF7B4FFDB
:1027400000240CE005EB05110E4A02EB4101891C47
:1027500004F11002885C00F0B9F8601CC4B2102CBF
:10276000F0DB03E0681CC5B2282DC0DB00BFB61C3F
:1027700008F1100000F0FF0830780028B5D1BDE85E
:10278000F0810000084200082DE9F0410646884625
:10279000174600250024A7F1200541463046FFF7E3
:1027A00083FF00BF06E004EB05110D4A505C00F00A
:1027B0008DF8641C082CF6D3711CC8B24146FFF793
:1027C00073FF002407E004EB05110831044A505C54
:1027D00000F07CF8641C082CF5D3BDE8F081000003
:1027E000183C00082DE9F04105460C461646002726
:1027F000681E4006050EE006040E0DE0F25D21465F
:102800002846FFF7C1FF04F10800C4B2782C02DDAE
:102810000024A81CC5B27F1CF05D0028EED1BDE8E5
:10282000F081000070B5044600251EE004F0800031
:1028300018B101201A49086002E000201849086018
:102840001420FFF77DFE01201549091F08601420A0
:10285000FFF776FE00201349C1F894011420FFF71A
:102860006FFE6006040E681CC5B2082DDEDB012079
:102870000B4908601420FFF763FE01200949C1F8E5
:1028800094011420FFF75CFE20210748FFF735FC78
:10289000064600200249091F0860304670BD00004E
:1028A0009881214200802142000C014010B504466D
:1028B000FFF74CFE7820FFF7B5FF0020FFF7B2FFCF
:1028C0002046FFF7AFFFFFF75FFE10BD10B50446CF
:1028D000FFF73CFE7820FFF7A5FF4020FFF7A2FF9F
:1028E0002046FFF79FFFFFF74FFE10BD7047000027
:1028F00029B1064AD2690243044BDA6104E0034A73
:10290000D2698243014BDA61704700000010024037
:1029100029B1064A92690243044B9A6104E0034AD2
:1029200092698243014B9A61704700000010024097
:1029300030B500210022002400232D4D6D6805F0E4
:102940000C0121B1042905D0082923D105E0294D26
:10295000056022E0274D05601FE0254D6D6805F4F8
:102960007012234D6D6805F48034022505EB924208
:102970001CB9214D554305600BE01D4D6D6805F4F4
:1029800000351DB11C4D5543056002E0194D5543FE
:10299000056002E0174D056000BF00BF144D6D6873
:1029A00005F0F0010909154D6B5C0568DD404560D7
:1029B0000F4D6D6805F4E061090A104D6B5C4568C8
:1029C000DD4085600A4D6D6805F46051C90A0B4D04
:1029D0006B5C4568DD40C560054D6D6805F44041A0
:1029E000890B074D6B5CC568B5FBF3F5056130BD20
:1029F0000010024000127A0000093D00640000202F
:102A000074000020704710B500F002F810BD0000FF
:102A10000CB50020019000903348006840F48030ED
:102A20003149086000BF3048006800F40030009071
:102A30000198401C0190009818B90198B0F5A06F5A
:102A4000F1D12948006800F4003010B10120009055
:102A500001E0002000900098012843D1234800683D
:102A600040F01000214908600846006820F003008B
:102A700008600846006840F0020008601A48406894
:102A8000194948600846406848600846406840F474
:102A9000806048600846406820F47C104860084622
:102AA000406840F4E81048600846006840F08070D4
:102AB000086000BF0C48006800F000700028F9D0E2
:102AC0000948406820F0030007494860084640680C
:102AD00040F00200486000BF0348406800F00C006E
:102AE0000828F9D10CBD000000100240002002406F
:102AF00010B5044624B101210448FFF709FB03E0A7
:102B000001210248FFF702FB10BD00000008014050
:102B100010B5044624B102210448FFF7F9FA03E096
:102B200002210248FFF7F2FA10BD00000008014040
:102B300010B5044624B110210448FFF7E9FA03E078
:102B400010210248FFF7E2FA10BD00000008014022
:102B500010B5044624B120210448FFF7D9FA03E058
:102B600020210248FFF7D2FA10BD00000008014002
:102B700010B5044624B104210448FFF7C9FA03E064
:102B800004210248FFF7C2FA10BD0000000801400E
:102B900010B5044624B108210448FFF7B9FA03E050
:102BA00008210248FFF7B2FA10BD000000080140FA
:102BB000042808D14FF0E021096941F004014FF0E9
:102BC000E022116107E04FF0E021096921F00401E2
:102BD0004FF0E022116170477047000010B51348B4
:102BE000006840F00100114908600846406810493B
:102BF00008400E494860084600680E4908400B49E5
:102C000008600846006820F4802008600846406894
:102C100020F4FE0048604FF41F008860FFF7F3FEC9
:102C20004FF000600449086010BD00000010024031
:102C30000000FFF8FFFFF6FE08ED00E010B50121EF
:102C4000064800F04EF840B10121044800F03AF87F
:102C500003480068401C0249086010BD00040040A1
:102C6000000000207FB505460C4601210220FFF739
:102C70003FFEADF80850ADF804400020ADF80A0062
:102C8000ADF8060001A90E4800F046F801221146F1
:102C90000B4800F037F81D208DF8000000208DF85B
:102CA000010003208DF8020001208DF80300684622
:102CB000FFF7E8FB0121024800F007F87FBD0000A4
:102CC00000040040CA430282704721B1028842F0EA
:102CD0000102028004E002884FF6FE731A4002806F
:102CE000704730B50246002000230024158A05EA0B
:102CF0000103958905EA010413B10CB1012000E03C
:102D0000002030BD1AB183890B43838102E083899F
:102D10008B43838170470000002202881D4B98423C
:102D20000ED01D4B98420BD0B0F1804F08D01B4BFA
:102D3000984205D01A4B984202D01A4B984204D1BF
:102D40004FF68F731A404B881A43174B984207D09F
:102D5000164B984204D04FF6FF431A40CB881A43D3
:102D600002808B8883850B8803850A4B98420BD0A1
:102D7000094B984208D00E4B984205D00D4B984213
:102D800002D00D4B984201D10B7A03860123838236
:102D900070470000002C0140003401400004004056
:102DA00000080040000C00400010004000140040EB
:102DB00000400140004401400048014010B54FF47C
:102DC00080710348FDF7FEFB00200249086010BD3A
:102DD000780000200400002010B540F225510E4874
:102DE00000F082F8B0B10D480068FF2802D9002039
:102DF0000A4908600848001D0088C1B207480268F7
:102E00000068401C054B1860054881542021024889
:102E100000F048F810BD0000003801400400002018
:102E2000780000200A48006808B901207047084867
:102E3000006808490968884203D1002004490860F5
:102E4000F4E703480068034908600120EEE700004A
:102E5000040000200800002010B540F225510E4863
:102E600000F042F8B0B10D480068FF2802D90020F8
:102E70000A4908600848001D0088C1B20748026876
:102E80000068401C054B1860054881542021024809
:102E900000F008F810BD0000004400400C000020C5
:102EA0007801002001F40072B2F5007F00D100BF6C
:102EB000CA430280704721B1828942F40052828164
:102EC00004E082894DF6FF731A4082817047024602
:102ED0000020B1F5007F00D100BF13880B400BB17B
:102EE000012000E00020704770B502460024002356
:102EF0000025002040F66A16B14200D100BFC1F3A0
:102F0000421501F01F03012606FA03F3012D02D139
:102F10009689334006E0022D02D1168A334001E043
:102F2000968A33400C12012606FA04F416883440BF
:102F300013B10CB1012000E0002070BDF0B50346D4
:102F4000002400260025002040F66A17B94200D16F
:102F500000BF1846C1F3421401F01F06012707FA0B
:102F600006F5012C01D10C3004E0022C01D1103007
:102F700000E014301AB107682F43076002E00768C9
:102F8000AF430760F0BD00002DE9F04786B005466D
:102F90000E460024A24600BFA1460027B08900B11A
:102FA00000BF2F462C8A4CF6FF700440F088044383
:102FB0002C82AC894EF6F3100440B0883189084366
:102FC000718908430443AC81AC8A4FF6FF4004404A
:102FD000B0890443AC8201A8FFF7AAFC1F488742CE
:102FE00002D1DDF810A001E0DDF80CA0A88900F402
:102FF000004040B10AEBCA0000EB0A1031684900FA
:10300000B0FBF1F807E00AEBCA0000EB0A103168E8
:103010008900B0FBF1F86420B8FBF0F0040120094E
:10302000642101FB1089A88900F4004040B13220DE
:1030300000EBC900B0FBF1F000F00700044308E02A
:10304000322000EB09106421B0FBF1F000F00F001A
:1030500004432C8106B0BDE8F08700000038014031
:10306000C1F308028280704700BFFEE710B586B04A
:10307000044601210420FFF74BFC01218803FFF7E0
:1030800047FC18208DF817004FF40070ADF81400BD
:1030900003208DF8160005A91E48FEF7A3FF0420A3
:1030A0008DF817000002ADF8140003208DF816000B
:1030B00005A91848FEF796FF25208DF8000001208D
:1030C0008DF8030000208DF8010003208DF8020028
:1030D0006846FFF7D7F901940020ADF810000C20E6
:1030E000ADF80E000020ADF80C00ADF80A00ADF808
:1030F000080001A90848FFF747FF012240F22551C7
:103100000548FFF71BFF01210348FFF7D4FE06B077
:1031100010BD000000080140003801402DE9F041D9
:1031200007460C46154600260DE014F8011B3846EC
:10313000FFF796FF00BF40213846FFF7C8FE002882
:10314000F9D0701C86B2AE42EFDBBDE8F08140F2F0
:10315000013200204FF0E04100F012BD024A002091
:10316000110700F00DBD000001FDFFFF10B5044682
:10317000D1E9000100F002F8206010BDF8B5044666
:103180000D466A4600F06AF800987E3000900028EC
:103190001EDC002213462046294600F0DFF917D036
:1031A000002140F608004FF0000006462046294660
:1031B00000F08EF9044640F6080006EA00014FF0E0
:1031C000000034F0004004BF0220FDF7F4FF29E0C6
:1031D0000098FF2828DB002108464FF0000000F48B
:1031E0004006002213462046294600F07DFA8CBF97
:1031F000002501250220FDF7DEFF4FF0FF4446B118
:10320000002D0CBF4FF400004FF48000B04218BFF7
:10321000084C042108464FF00000002D04BF84F044
:103220000040F8BD2046F8BD20462946BDE8F840DC
:1032300000F04EB9FFFF7F7F10B504460A46D4E97F
:103240000003194600F0BAF8C4E9000110BD303897
:103250000A2801D2012070470020704710B514469B
:1032600000222260114A21F000439342A8BF10BD02
:1032700053EA000208BF10BDB3F5801FA8BF226843
:1032800007DA362200F07CFC6FF0350221F00043B3
:103290002260DFF81CC06FF31E510CEB23531A445D
:1032A00041F0FF5141F00051226010BD0000F07F5D
:1032B00002FCFFFF10B5384800681C2809DD01201A
:1032C000FFF716FC0020FFF723FC012033490860BC
:1032D00016E031480068162809DA0020FFF708FCDC
:1032E0000120FFF715FC02202C49086008E00020AF
:1032F000FFF7FEFB0020FFF70BFC002027490860CA
:1033000027480068322806DA0120FFF731FC012047
:103310002449086009E0224800683C2805DD0020B7
:10332000FFF726FC00201F4908601F48006864283A
:1033300006DA0120FFF72CFC01201C49086005E09B
:103340000020FFF725FC0020184908601848006895
:10335000012805D1FFF7ECFB01201649086005E0C4
:103360000020FFF7E5FB00201249086012480068C2
:10337000B0F5E17F09DD0948006830B90120FFF7A9
:10338000E7FB01200B49086005E00020FFF7E0FBA8
:1033900000200849086010BD1800002030000020FF
:1033A000200000203C0000202400002040000020DD
:1033B0002C00002034000020280000202DE9F041DE
:1033C00006460C4640F2FF75174635EA14502BD0DE
:1033D00000221346304600F0C1F825D03A46304668
:1033E000214600F0CDFB06460C4635EA145010D0BD
:1033F00000221346304600F0B1F815D10220FDF747
:10340000DAFEFFF7ABFE0A46214662F31E01BDE875
:10341000F0810220FDF7CFFEFFF799FE0A46214614
:1034200062F31E01BDE8F08130462146BDE8F0811F
:103430004FF4A060FFF75EF8FEF71AFDFEF76AFE94
:10344000FFF7B8F8FFF760F84FF4E130FFF70EFE32
:1034500041F61F416320FFF705FC4FF47A70FEF739
:1034600029FD4FF47A70FEF725FD03E0FEF748FDD5
:10347000FEF76CFEFAE7000010B500290AD00878C4
:10348000002807D005487844FEF7D0F8002801D07E
:10349000002010BD0248784410BD00002213000037
:1034A0001A13000010B500290AD00878002807D0A8
:1034B00005487844FEF7BAF8002801D0002010BD76
:1034C0000248784410BD0000121300000A130000E7
:1034D00021F00042A2F16052B2F5801F01F00043DA
:1034E00028BFD2F17F6C0BD95FEA001C43EAC2020D
:1034F00042EB507018BF704728BF20F001007047A2
:10350000B2F5801FBCBF184670474FEA410C1CF54E
:10351000001F02D2084600F07ABA70B500F096F8A3
:1035200000000089FFF7F6BF4FF00040A0F58000D3
:103530007047000002494FF0000000F0EFBA00BFF2
:103540000000F87F491058BFC1F140415B1058BFDF
:10355000C3F140438B42EFF30080704751EA030C04
:1035600017D41CF5801F58BFBCF5801F00F10680E2
:10357000994218BF704708BF9042704707D711F5AE
:10358000801F58BF13F5801F19D499427047894294
:1035900070471CF5801F08D5BCF5801FF7D58B42FE
:1035A00018BF704708BF824270474FF4001C1CEBE5
:1035B000410F38BF1CEB430F01D28B42704770B5EF
:1035C00000F044F8922449004FF000514FF080532E
:1035D000FFF7B8BF51EA030C17D41CF5801F58BF82
:1035E000BCF5801F00F10680994218BF704708BFE4
:1035F0009042704707D711F5801F58BF13F5801F01
:1036000019D499427047894270471CF5801F08D52C
:10361000BCF5801FF7D58B4218BF704708BF8242A8
:1036200070474FF4001C1CEB410F38BF1CEB430FDD
:1036300001D28B42704770B500F008F8922449001F
:103640004FF000514FF08053FFF77CBF0EF1020E98
:103650002EF0030E5EF8046B364205D4012A43EBCC
:10366000030515F5001F12D8012841EB010C1CF5CC
:10367000001F0CD80ED14FEAD17C15F5001F0CEBC2
:103680004C0C0CF1020C08BF4CEBD37C04E04FF067
:10369000080C01E04FEAD37C0CEB4C0526FA05F64A
:1036A00006F00706B6F1040C06D20EEB860CBDE858
:1036B00070404CF0010C6047DFE80CF0090B02028F
:1036C0004FF000414FF00000A1F5002170BD1946F8
:1036D0001046012851EB010418BFD4F5001484BF33
:1036E000002001F0004170BD53EA010C17D41CF515
:1036F000801F58BFBCF5801F00F106808B4218BFA9
:10370000704708BF8242704707D713F5801F58BF24
:1037100011F5801F19D48B4270479B4270471CF5EE
:10372000801F08D5BCF5801FF7D5994218BF704798
:1037300008BF904270474FF4001C1CEB430F38BF8A
:103740001CEB410F01D2994270470FB40CBC03BC73
:10375000FFF771BF90EA010F48BF81F0004100F10F
:103760006C81421A3CBF801A89184FEAD0524FF040
:103770007F4C1CEA410FA2EBD15318BF9CEA026FA9
:1037800000F03B804FF0004C4CEA00204CEA012155
:1037900021FA03FC10EB0C0C1ED202F1FF325FEA9F
:1037A0001C2040EBC25038BF70471CF07F0F4FEA1F
:1037B000400C18BFBCF17F4F38BF7047C3F12003E6
:1037C000994008BF20F00100BCF17F4F38BF70471F
:1037D000A0F1C04000F01BB94FEA3C00000A40EBEA
:1037E000C25028BF1CF0FF0F4FEA400CE6D018BFB4
:1037F000BCF17F4F38BF7047EAE79CEA026F05D003
:1038000010EA5C0F08BF00F00040704710B500F0F0
:10381000B8F800BF64FBBE3E41000B0ED3F19E0220
:1038200008D950F400034FEA032323FA02F048BFFB
:103830004042704710B500F0A4F800BF49922480C0
:10384000002070476FF0004282EA200070470000BD
:1038500010F0004148BF4042B0FA80F310FA03F282
:10386000C3F19D030BD051EAC35101EB1220530663
:1038700038BF704700F1010008BF20F00100704719
:103880004FF47F0C1CEAD0121EBF1CEAD11392EA3F
:103890000C0F93EA0C0F00F0478090EA010F48BF2D
:1038A00042F480724FF0004C4CEA00204CEA0121B7
:1038B00002EB0302A0FB0113A2F50002002918BFCE
:1038C00043F001035B0028BF4FEA330342EB22427F
:1038D0005FEA132C4CEBC2502EBFBCEB436FB2F52A
:1038E0007C0F70474FEA036CBCF1004F08BF20F01B
:1038F0000100B2F57C0F38BF70470BD582F0FF0294
:1039000012F5803FC8BF704700F1C040D8BF00F03B
:103910000040704700F5000C5FEA4C0C48BF704750
:10392000B0F1C04000F073B890EA010F0CEAD11377
:1039300048BF42F48072624538BF634504D280EAD2
:10394000010000F00040704710B500F01AF800BF09
:103950008900013E00F007B800F009B85FEA410CA9
:103960005FEA1C6C08D080EA010000F050B85FEA02
:10397000400C5FEA1C6CF6D14FF00040A0F58000CF
:1039800070470EF1020E2EF0030E5EF8044B244237
:1039900004D44FEA4102B2F17F4F11D84FEA4003FD
:1039A000B3F17F4F0CD80ED14FEAD07CB2F17F4FEC
:1039B0000CEB4C0C0CF1020C08BF4CEBD17C04E07E
:1039C0004FF0080C01E04FEAD17C0CEB4C0324FAD9
:1039D00003F404F00704B4F1040C06D20EEB840CDB
:1039E000BDE810404CF0010C6047DFE80CF0070820
:1039F00002024FF00040A0F5800010BD08464200D2
:103A000018BFD2F1807288BF00F0004010BDFF21C6
:103A100041EAD050C005704780F0004090EA010FA5
:103A20007FF59FAE81F0004100F007B890EA010FEA
:103A300048BF81F000413FF594AE421A04D882F0AD
:103A40000042A0EB020011444FEAD0524FF07F4CED
:103A50001CEA410FA2EBD15318BF9CEA026F4AD077
:103A60004FF0004C4CEA00204CEA012121FA03FC03
:103A7000B0EB0C0C0FD412F0FE0F36D05FEA4C0006
:103A80001DD5001240EBC25038BF70471CF03F0FED
:103A900018BF70470BE0A2F101025FEA1C2040EB67
:103AA000C25038BF70471CF07F0F18BF7047C3F17A
:103AB0002003994014BF401E20F001007047800889
:103AC0004FEA122308BF7047B0FA80FCA2EB0C0249
:103AD000CCF1280C60FA0CF093EA122F04BF00EB33
:103AE000C25070474FEAC3707047130A5FEADC1098
:103AF00008BF7047F6E79CEA026F04D010EA5C0F3B
:103B000008BF0020704710B5FFF73BFF40DFF63ECF
:103B100081F0004070474FF0000070470CF00F0339
:103B2000092B08BF082000F05F800A2B0BD0082B60
:103B300018BF704708BF1CF0400F0AD04FF00000BC
:103B40004FF0000170471CF0400F18BF4FF00040CD
:103B500070471CF0100F08D020F0704300F07F4237
:103B600042EAD3014FEA4370704700F0604021F011
:103B70007F4242EA000201F07F4040EA72707047E3
:103B80004FF0FF0C4CF4E06C1CEA11531CBF9CEA94
:103B9000030C9445C2BFDA4201EB02517047002B7F
:103BA0000DD0BCF1000F0FD0002A01F00041A4BFDE
:103BB00041F0E04141F07F614FF00000704701F0BB
:103BC00000414FF00000704750EA01334FF09B0C6A
:103BD00018BF4CF0806C7FF4ADAC7047FCF7C2BEF0
:103BE000FDF7F0BAFDF77EBC1CF4801F11D01CF469
:103BF000E02F03D06FEACC31490070474FF04050BE
:103C0000EFF3008222F0704242EA000282F3008861
:103C100070474FF0000070470000000000000000F7
:103C20000000000000000000000000F8000000009C
:103C3000000000333000000000100C06100C0600DD
:103C4000000000000000000040C07840C078400044
:103C5000043F04043F040400007088FC08300000A6
:103C6000001820FF211E0000F008F000E0180000FE
:103C700000211C031E211E0000F0088870000000B7
:103C80001E2123241927211010160E000000000009
:103C90000000000000000000000000E01804020026
:103CA000000000071820400000020418E000000097
:103CB0000040201807000000404080F08040400095
:103CC0000202010F01020200000000F000000000EB
:103CD0000101011F010101000000000000000000BF
:103CE00080B0700000000000000000000000000034
:103CF00000010101010101010000000000000000BD
:103D00000030300000000000000000008060180457
:103D1000006018060100000000E010080810E00034
:103D2000000F102020100F00001010F800000000FD
:103D30000020203F20200000007008080888700044
:103D400000302824222130000030088888483000C4
:103D50000018202020110E000000C02010F80000E4
:103D600000070424243F240000F80888880808007D
:103D70000019212020110E0000E010888818000092
:103D8000000F112020110E0000380808C838080064
:103D90000000003F000000000070880808887000E4
:103DA000001C222121221C0000E010080810E00065
:103DB0000000312222110F00000000C0C0000000EE
:103DC0000000003030000000000000800000000013
:103DD000000080600000000000008040201008000B
:103DE00000010204081020004040404040404000D4
:103DF00004040404040404000008102040800000AF
:103E00000020100804020100007048080808F000B3
:103E10000000003036010000C030C828E810E00083
:103E20000718272423140B000000C038E00000000E
:103E3000203C23020227382008F888888870000078
:103E4000203F202020110E00C0300808080838004C
:103E5000071820202010080008F808080810E000C3
:103E6000203F202020100F0008F88888E808100064
:103E7000203F20202320180008F88888E808100038
:103E8000203F200003000000C03008080838000070
:103E900007182020221E020008F808000008F80871
:103EA000203F210101213F20000808F808080000F8
:103EB0000020203F2020000000000808F80808002B
:103EC000C08080807F00000008F888C028180800A3
:103ED000203F20012638200008F8080000000000DC
:103EE000203F20202020300008F8F800F8F80800D3
:103EF000203F003F003F200008F830C00008F808CD
:103F0000203F200007183F00E01008080810E000DC
:103F10000F10202020100F0008F808080808F000F3
:103F2000203F210101010000E01008080810E00016
:103F30000F18242438504F0008F8888888887000AB
:103F4000203F2000030C302000708808080838004B
:103F50000038202121221C00180808F80808180041
:103F60000000203F2000000008F808000008F808C2
:103F7000001F202020201F000878880000C8380873
:103F8000000007380E010000F80800F80008F800EB
:103F9000033C0700073C0300081868808068180885
:103FA00020302C03032C30200838C800C838080003
:103FB0000000203F2000000010080808C838080052
:103FC0002038262120201800000000FE02020200F6
:103FD0000000007F40404000000C30C000000000A6
:103FE000000000010638C00000020202FE000000CE
:103FF000004040407F000000000004020202040074
:1040000000000000000000000000000000000000B0
:104010008080808080808080000202040000000098
:104020000000000000000000000080808080000090
:104030000019242222223F2008F80080800000007E
:10404000003F112020110E00000000808080000041
:10405000000E112020201100000000808088F80050
:10406000000E112020103F20000080808080000082
:10407000001F222222221300008080F088888818E6
:104080000020203F202000000000808080808000F1
:10409000006B94949493600008F800808080000086
:1040A000203F210000203F20008098980000000061
:1040B0000020203F20200000000000809898000091
:1040C00000C08080807F000008F8000080808000B1
:1040D000203F24022D302000000808F800000000D6
:1040E0000020203F20200000808080808080800091
:1040F000203F20003F20003F808000808080000023
:10410000203F210000203F200000808080800000B0
:10411000001F202020201F008080008080000000E1
:1041200080FFA12020110E00000000808080800010
:10413000000E112020A0FF80808080008080800001
:1041400020203F212000010000008080808080002E
:104150000033242424241900008080E080800000A3
:104160000000001F202000008080000000808000F0
:10417000001F202020103F20808080000080808051
:1041800000010E30080601008080008000808080E1
:104190000F300C030C300F00008080008080800006
:1041A0000020312E0E312000808080000080808031
:1041B00080818E70180601000080808080808000E1
:1041C0000021302C2221300000000000807C0202FF
:1041D00000000000003F404000000000FF00000021
:1041E00000000000FF0000000002027C80000000D0
:1041F0000040403F000000000006010102020404EC
:104200000000000000000000B3F5080889EA1888E3
:10421000000404FC040404FC0000020100FF018609
:10422000402018074080403F0000CABC1010F01F1B
:1042300010F00040E05847405060C0004022150890
:1042400016210000FE42424242FE0000BBAF008049
:1042500060F807000000FF40201008040000010083
:1042600000FF000402013F40404040407800D6D0AB
:104270000000F010101010FF10101010F0000000DF
:1042800000000F04040404FF040404040F000000F1
:10429000CEC21060028C0000FE9292929292FE00BA
:1042A000000004047E01407E42427E427E42427E05
:1042B0004000B6C80000FC242424FC252624FC244D
:1042C0002424040040308F80844C55252525554CEE
:1042D00080808000C9E8404042CC0040A09E82829D
:1042E000829EA02020000000003F908840432C10B8
:1042F000284641808000D6C3001715D55557557DF7
:10430000555755D5151700004040407F5555555518
:104310005555557F40404000D7EE4040C05F555551
:10432000D5555555555F4040400020603F25151537
:10433000FF904729112D43808000B4F320202020D6
:10434000202020FF202020202020200080804020CE
:10435000100C0300030C102040808000D0A100004E
:1043600000E0000000FF0000002040800000080482
:1043700003000040807F0000000000010E00D6B561
:10438000008060F80704E4A4A4BFA4A4E40400002F
:10439000010000FF40407F4A4A4A4A4A7F404000AD
:1043A000A3BA0000000000000000000000000000B0
:1043B0000000000036360000000000000000000091
:1043C0000000CAD600002424242424FC2222222314
:1043D00022000000020202020242827F0202020266
:1043E00002020200D7D4000000F8888C8A898888ED
:1043F00088F800000000000000FF444444444444A6
:1044000044FF00000000B6AF4044C44444444010A0
:1044100010FF101010F00000103C131014B84030C2
:104420000E014080403F0000C4A31010D0FF901444
:10443000E4AFA4A4A4AFE4040000040300FF0089D7
:104440004B2A1A0E1A2A4B888000CABD1010909071
:104450009090901010FF1010111610000020602096
:104460003F10101000030C102040F800CEC2106066
:10447000028C0000FE9292929292FE0000000404D0
:104480007E01407E42427E427E42427E4000B6C86D
:104490000000FC242424FC252624FC2424240400DD
:1044A00040308F80844C55252525554C80808000D8
:1044B000B9E24040424458C0407F40C05048464066
:1044C00040008080402018070000003F40404040EE
:1044D0007800D5D500FE424242FE0042A29E82A252
:1044E000C2BE0000806F080828CF00002FC808084F
:1044F00028CF0000D6D00000F010101010FF1010D0
:104500001010F000000000000F04040404FF040475
:1045100004040F000000BCE400F8010600F01212D1
:1045200012F2020202FE000000FF0000001F111143
:10453000111F0040807F0000D3D004040484E43CB9
:104540002724242424E40404040004020100FF09B5
:1045500009090949897F00000000CEDE004042427F
:1045600042C27E42C242424240400000804020108F
:104570000C0300003F40404040700000C8CB0000EA
:1045800000000000C03FC0000000000000008040AC
:1045900020100C03000000030C1020408000CCE52C
:1045A000008060F807101010D0FFD010101000002D
:1045B000010000FF1008040B08FF080B040810009E
:1045C000C0B60404E4040FF40404F444CF444444A7
:1045D000040040407D44447D4445447C44457C4047
:1045E0004000D1C00000C2B28282828282FE8282FA
:1045F000828280000020201008040241807F000099
:1046000000000000BFAA80828282FE8282828282B3
:10461000FE8282828000008040300F000000000097
:10462000FF0000000000C6F4000000FC44444445C4
:1046300046444444447C00004020180700FC4444A5
:104640004444444444FC0000B9D800001011161042
:1046500010F010101413100000008181414121114D
:104660000D030D11214141818100B1D500F80122D6
:10467000202222A2FA22222202FE000000FF0008CD
:10468000040211201F000040807F0000CAE60400E1
:1046900004007FF8440844087FF84408040004003C
:1046A0007FF0040804087FF0040804080400CACA64
:1046B00000007FF0401040107FF0441044107FF065
:1046C00001000200040008001000200040008000EB
:1046D00004000008000000000000000200010000CB
:1046E0001000000002400000000000A000000000D8
:1046F00005400000000000C8000000000C40000061
:104700000000409C00000000194000000020BCBEDA
:104710000000000034400000BFC91B8E00000004F0
:10472000B5400000504BCFD06607E2CF010000003B
:104730006C4100003E8251AADFEEA7340100000068
:10474000D9420000DCB5A0E23A301F97FFFFFFFF1F
:10475000B4450000FD25A0C8E9A3C14FFFFFFFFF3E
:10476000FF3F00000000008000000000FF3F00004D
:104770000000008000000000D44800080000002075
:1047800078000000280100084C490008780000204B
:104790008008000044010008000000000000F07FD5
:1047A000FFFFFFFFFFFFEF7F1C0000004300000042
:1047B000F8FFFFFF0C0000000E0000000F000000DB
:1047C0002E0000001001000043000000F8FFFFFF72
:1047D0000040404040404040404041414141414014
:1047E00040404040404040404040404040404040C9
:1047F0004005020202020202020202020202020258
:10480000022020202020202020202002020202025C
:1048100002029090909090901010101010101010B4
:1048200010101010101010101010101002020202C0
:104830000202888888888888080808080808080804
:104840000808080808080808080808080202020200
:104850004000000000000000000000000000000018
:104860000000000000000000000000000000000048
:104870000000000000000000000000000000000038
:104880000000000000000000000000000000000028
:104890000000000000000000000000000000000018
:1048A0000000000000000000000000000000000008
:1048B00000000000000000000000000000000000F8
:1048C00000000000000000000000000000000000E8
:1048D00000000000000000000000000000000000D8
:1048E00000000000000000000000000000000000C8
:1048F00000000000000000000000000000000000B8
:1049000000000000000000000000000000000000A7
:104910000000000000000000000000000000000097
:1049200000A24A040000000000000000010203048D
:10493000060708090000000000000000010203044F
:0C4940000102030406070809020406082F
:04000005080000ED02
:00000001FF
